:02000002D0002C
:1040000000400D007C9D0D00000006000C00050125
:08401000040179050000000025
:0440180010940D00F3
:1040200009480A49884208B505D0094A824202D0A7
:10403000121A05F08DF90748074A0021121A05F0F7
:1040400092F9014808BD00BFD8E20320E89C0D00AA
:1040500044E3032044E30320F0E7032070B502F0BB
:104060007DFE074C074BE41AA40800251E46A54216
:1040700004D056F8253098470135F8E770BD00BFE9
:10408000DC9C0D00909C0D0000F02CB808B500F0F1
:10409000F5FABDE8084002F02FBE01F0F3BC01F0D4
:1040A000F9BC01F0F7BC0078B0FA80F04009704725
:1040B000012303707047000010B5034B03600446F2
:1040C00001F054F9204610BD2C940D0010B50446A3
:1040D000FFF7F2FF20464FF4987102F01AFF2046D6
:1040E00010BD000008B502F085FD4FF4165102F036
:1040F00075FD322001F0FEFC0420002102F06CFE70
:10410000244800F052FB18B102F074FD224902E08D
:1041100002F070FD214902F0B4FA02F0B3FE02F0A1
:1041200083F81F4800F0BAFB1D4800F023FC1C4830
:1041300000F087FC1A4800F0C6FB00220221184854
:1041400000F0CEFB1749164800F036FC0022032190
:10415000134800F0C5FB1449114800F02DFC002263
:1041600004210F4800F0BCFB0D48104900F024FC6E
:104170000F4800F077FF18B102F03CFD0D4902E056
:1041800002F038FD0C4902F07CFA01F077FA0B4B93
:10419000186008BDA4E3032034940D004E940D0074
:1041A000C4E3032068940D0071940D007D940D000C
:1041B00060E3032085940D009A940D00C0E3032072
:1041C00038B50446114800F01DFB1149054620464C
:1041D00002F0D8FB0F4B1B689D4201D10E4910E045
:1041E0000E4B1B689D4201D10D490AE00D4B1B6827
:1041F0009D4201D10C4904E00C4B1B689D4203D148
:104200000B49204602F0EBFB204638BDA4E3032017
:10421000AF940D00CC950D00B4940D00C8950D0021
:10422000BB940D00C0950D00CA940D00C4950D00FF
:10423000D8940D00F8B50F4C074620460E4615469B
:1042400000F024FFBDEEC00A204687ED000A00F012
:104250004BFFDFED097A80EE270A2046BDEEC00A4B
:1042600086ED000A01F01EF8BDEEC00A012085EDC2
:10427000000AF8BD60E303200000C842000000000F
:104280002DE9F0472DED028B4D4C4E4B226884B04A
:1042900012B91B68236000E01A6020684A4DDFF8FD
:1042A0003CA104F0FFF93CA3D3E9002304F09AFBFE
:1042B00004F01EFD286004F017FA9FED391B41EC55
:1042C000100B02F075FF95ED008A18EE100A8DEDC7
:1042D000020B04F009FA9DED020B8046894632A3D9
:1042E000D3E9002351EC100B04F052FA4246064683
:1042F0000F464B464046494604F04AFA2CA3D3E900
:10430000002304F045FA02460B463046394604F0D5
:104310008BF8DFED2E7A68EE277A064617EE900AC4
:104320000F4604F0E1F902460B463046394604F0E8
:104330007DF821A3D3E9002304F078F804F0D8FC39
:10434000CAF8000002F056FC2368214A012102F05D
:10435000D1F902F04FFC0446286804F0C5F91D4A63
:10436000CDE900010121204602F0C4F902F042FC2F
:104370000446DAF8000004F0B7F9174ACDE9000165
:104380000121204602F0B6F904B0BDEC028BBDE875
:10439000F08700BFAFF3008000000000804F1241A3
:1043A00000000000000008409A9999999999F13FFE
:1043B0006666666666660E40D7A3703D0AD7E33F21
:1043C0004CE3032054E303205CE303200000024499
:1043D000E2940D00EA940D00F6940D0048E30320EA
:1043E000F8B51F460646324814460D4600F0C2FA9C
:1043F000032200212E4800F073FA39682C4800F09F
:10440000DBFA002202212A4800F06AFA29492848EA
:1044100000F0D2FA3146264800F0DBFA264924485B
:1044200000F0CAFA00220321214800F059FA23497A
:104430001F4800F0C1FA29461D4800F0CAFA204979
:104440001B4800F0B9FA00220421194800F048FA8C
:104450001C49174800F0B0FA214615481A4C00F0E4
:10446000B8FA1A49124800F0A7FA94ED007AF7EE6C
:10447000007AB4EEE77AF1EE10FA17DD002205219A
:104480000B4800F02DFA1249094800F095FAD4EDD6
:10449000007A0748FDEEE77A17EE901A00F099FAD5
:1044A0000C490348BDE8F84000F086BAF8BD00BFEB
:1044B000C4E303200E950D0015950D0017950D0012
:1044C000F4940D0022950D0048E303202A950D0079
:1044D0002F950D0007950D0070B504460E46154644
:1044E00001F05CF801223146204600F0CBFF204667
:1044F0003A2100F069FF2A4620460249BDE8704093
:1045000000F0B2BFE7940D0038B504462DED028BE4
:104510000D46B0EE408A01F041F8294620460122BE
:1045200000F0B0FF20463A2100F04EFFB0EE480AFE
:10453000BDEC028B2046BDE8384001F03BB80000DE
:10454000F0B5D5B007460E46154614A94FF4807253
:1045500008A81C4600F026FF3A4B08937D227B21D9
:1045600008A800F03FFF3A46374908A8FFF7B4FF14
:104570003246364908A8FFF7AFFF2A46344908A853
:10458000FFF7AAFF214604A802F01EFA08A801F0CE
:1045900005F801222F4908A800F074FF3A2108A865
:1045A00000F012FF0122049908A800F06BFF04A894
:1045B00002F0A1F9284B1C68F4B108A800F0EEFF46
:1045C0000122264908A800F05DFF3A2108A800F062
:1045D000FBFE2246224908A800F046FF214B224953
:1045E00093ED000A08A8FFF78FFF204B204993EDB9
:1045F000000A08A8FFF788FF08A800F004FF099B3D
:1046000003931C4B039A1B788DF800301A493C2306
:1046100004A801F00BFC059C7CB16368013B63605E
:104620005BB9236820469B689847A368013BA36059
:104630001BB923682046DB68984708A8FFF73CFDB4
:1046400055B0F0BD2C940D0036950D003B950D0036
:1046500044950D004D950D004CE3032059950D0038
:1046600062950D005CE3032066950D0048E303208E
:1046700071950D0058E3032084950D002DE9F0415C
:1046800000218CB0042002F0FBFB314C314B324D49
:10469000186023681844206000F0F0FF2B68C01AEF
:1046A00047F2305398424FD904A8FFF789FD02F032
:1046B000A1FA049B294A012102F01CF803AA02A9CD
:1046C00001A8FFF7B7FD02F095FA019B244A0121EA
:1046D00002F010F802F08EFA029B224A012102F049
:1046E00009F802F087FA039B1F4A012102F002F841
:1046F000FFF7C6FD019E039FDDF8088004A908A806
:1047000002F062F9424608AB39463046FFF768FED0
:1047100008A802F0F0F8019E039FDDF8088004A9C4
:1047200008A802F051F908AB424639463046FFF777
:1047300007FF08A802F0DFF80023236000F09EFFC7
:10474000286004A802F0D7F80CB0BDE8F08100BFE3
:104750004CE3032050E30320C0E303208D950D00BC
:104760009D950D00A6950D00B3950D0010B5094B54
:1047700001241C7000F08AFF2046002101F0EEF8B1
:104780001121054800F00CF80448BDE8104000F085
:1047900089B900BF58E30320A4E3032060E30320AA
:1047A0000022016002614261704710B50446008832
:1047B00002F04FFB40F21233A0F10B029A4207D8ED
:1047C000A0606060E06000F059FFA061012010BDB2
:1047D000002010BD10B5044600F050FFA369C01AB8
:1047E000074B98420AD92369626993FBF2F3E360AD
:1047F00000F044FF0023A0612361636110BD00BF8E
:1048000020A1070010B5836843600446008802F0C9
:1048100020FB2369A0601844636920610133636150
:104820002046FFF7D7FFA2686168511AB1F5C87F2B
:1048300010DCB2F52F7F0DDCE368D31A962B0BDC6E
:10484000C82902DDB2F52F7F08D1322BCCBF022060
:10485000032010BD002010BD012010BD022010BD9E
:1048600000F014BF0368C9B29B68184710B50C4626
:1048700002F008FB3C2101F0EDFC02F003FB80217B
:10488000FFF7F0FF02F0FEFA036821469B689847A5
:1048900002F0F8FABDE8104001F0E3BC10B5AE211B
:1048A0000446FFF7E3FF052001F024F9AF2120467D
:1048B000FFF7DCFF052001F01DF92046A621BDE829
:1048C0001040FFF7D3BF10B5012304460370202129
:1048D000FFF7CCFF20460221BDE81040FFF7C6BF1E
:1048E00038B550391446C9B20546FFF7BFFFE1009D
:1048F000284601F00801FFF7B9FFC4F34301284639
:104900001031BDE83840FFF7B1BF10B50C4602F0DA
:10491000B9FA3C2101F09EFC02F0B4FA4021FFF705
:10492000A1FF02F0AFFA036821469B68984702F0A6
:10493000A9FABDE8104001F094BC0000A1F12003E9
:104940005F2B0B4B88BF202170B56FF4807203EB97
:10495000C10503EBC10306461544A3F1F90415F89C
:10496000011F3046FFF7D1FFA542F8D170BD00BF4F
:10497000D0950D0070B5AE210546FFF777FF0026F4
:104980000022F1B22846FFF7ABFF10242021284671
:10499000013CFFF7D3FF14F0FF04F7D10136082ED6
:1049A000EED12846AF21FFF761FF22462146284677
:1049B000BDE87040FFF794BF70B505460E46002471
:1049C000E3B20134F15C19B12846FFF7B7FFF7E70E
:1049D00070BDF0B585B000230E1E0746019302930B
:1049E000ADF80C3007DA2D21FFF7A8FF764201233E
:1049F00000240A2105E0FBD13021FFF79FFF0120B1
:104A00001DE004AA651C1444EDB296FBF1F201FB13
:104A1000126604F80C6C2C461646002AF1D12B4481
:104A2000DCB25DB104AB2B44384613F80D1C3031B9
:104A3000C9B2013DFFF782FFEDB2F2E7204605B0B3
:104A4000F0BDA621FFF712BF00F020BE7FB50246E1
:104A500008461379956833B13DB90C4904B0BDE8F7
:104A6000704001F0FBBD0A4B00E00A4B167B0A4C7C
:104A70000A49527B0292012E08BF214601910095FE
:104A8000074A002101F036FE04B070BDED980D001C
:104A9000A09A0D00DC980D00E5980D00E9980D0036
:104AA00003990D00FF22027442748274C27470472D
:104AB0002DE9F04190F91330013305460F4604D13A
:104AC0001648BDE8F04101F00DBF072600244FF065
:104AD000010895F91300002180B202F08EF995F9D2
:104AE000110008FA06F1394080B202F086F995F912
:104AF0001300012180B202F080F995F912006400E0
:104B000080B2E4B202F092F908B144F0010416F167
:104B1000FF36DED22046BDE8F08100BF30E703203B
:104B20007FB590F91030013304460E46154611D179
:104B30000179006801F08AFB2068036831469B68B0
:104B400098472068036829469B689847206801F0C9
:104B500088FB2FE090F9133001330FD1164B174A21
:104B60000093029200230122694615488DF8043013
:104B70008DF80C208DF80D3001F044FE94F91000F2
:104B8000002180B202F039F906F07F012046FFF7DC
:104B90008FFF29462046FFF78BFF94F91000012173
:104BA00080B202F02AF994F91330013302D104489B
:104BB00001F00FFE04B070BDD8980D0020A10700D1
:104BC00030E70320F8B590F83C509DF818609DF848
:104BD0001CE09DF8207061F3871562F3020563F312
:104BE000C50590F8403080F83C5066F3471380F8D4
:104BF000403090F838306EF3C503044667F3020383
:104C000080F8383006F00702F221FFF789FF94F8A8
:104C10003820C2F3C20302F007019B0043EA4113AC
:104C200043EAD2122046F521FFF77AFF94F83C20A0
:104C3000C2F3C20302F007019B0043EA411343EAB7
:104C400092122046F421BDE8F840FFF769BF00004A
:104C500030B590F91030013385B004460D4616D1B9
:104C60000179006801F0F2FA2068036829469B6820
:104C70009847206801F0F5FA01222179206801F0B7
:104C8000E2FA206803685B699847C5B230E090F9A2
:104C9000133001330FD1184B184A009302920023AE
:104CA0000122694616488DF804308DF80C208DF8E5
:104CB0000D3001F0A7FD94F91000002180B202F040
:104CC0009CF845F080012046FFF7F2FE00212046C7
:104CD000FFF7EEFE054694F91000012180B202F0C4
:104CE0008CF894F91330013302D1054801F071FDBD
:104CF000284605B030BD00BFD8980D0020A10700A0
:104D000030E7032030B590F91030013385B0044608
:104D10000D461DD10179006801F098FA20680368FA
:104D200029469B689847206801F09BFA0222217966
:104D3000206801F088FA206803685B699847054697
:104D4000206803685B69984740EA052085B237E030
:104D500090F9133001330FD11B4B1C4A0093029280
:104D60000023012269461A488DF804308DF80C2082
:104D70008DF80D3001F046FD94F91000002180B24D
:104D800002F03BF845F080012046FFF791FE00213C
:104D90002046FFF78DFE002105462046FFF788FEDE
:104DA00040EA052085B294F91000012180B202F09A
:104DB00024F894F91330013302D1054801F009FDBC
:104DC000284605B030BD00BFD8980D0020A10700CF
:104DD00030E7032008B5FFF795FF40BA80B208BD61
:104DE00030B590F91030013385B004460D4621D11D
:104DF0000179006801F02AFA2068036829469B6857
:104E00009847206801F02DFA03222179206801F0EB
:104E10001AFA206803685B699847050220680368EE
:104E20005B69984728430502206803685B699847D7
:104E300005433BE090F9133001330FD11D4B1E4A5F
:104E4000009302920023012269461C488DF8043029
:104E50008DF80C208DF80D3001F0D4FC94F9100081
:104E6000002180B201F0C9FF45F080012046FFF724
:104E70001FFE00212046FFF71BFE002105022046F1
:104E8000FFF716FE2843050200212046FFF710FE1B
:104E9000054394F91000012180B201F0AEFF94F9AE
:104EA0001330013302D1054801F093FC284605B0C8
:104EB00030BD00BFD8980D0020A1070030E70320C7
:104EC00038B588210446FFF785FF8A21A082204655
:104ED000FFF780FF8C21E0822046FFF77BFF8E21C9
:104EE00020832046FFF776FF902160832046FFF75E
:104EF00071FF9221A0832046FFF76CFF9421E0838D
:104F00002046FFF767FF962120842046FFF762FFC7
:104F1000982160842046FFF75DFF9A21A0842046F7
:104F2000FFF758FF9C21E0842046FFF753FF9E21A6
:104F300020852046FFF74EFFA12160852046FFF720
:104F400087FEE12184F82C002046FFF743FFE32190
:104F5000E0852046FFF77CFEE42184F830002046FF
:104F6000FFF776FEE52105462046FFF771FE00F0CB
:104F70000F0040EA05106086E6212046FFF768FE34
:104F8000E52105462046FFF763FE001140EA0510C3
:104F9000A086E7212046FFF75BFE84F8360038BD87
:104FA00008B5F321FFF754FE00F0010008BD000032
:104FB00030B5044690F91000421C85B003D120683A
:104FC00001F032F921E0012180B201F016FF94F9DD
:104FD0001000012180B201F0FFFE94F91300431C80
:104FE00003D11F4801F0F0FB0FE0012180B201F076
:104FF000F3FE94F91100012180B201F0EDFE94F965
:105000001200002180B201F0E7FED0212046FFF718
:105010001FFE6028A06020D12046B622E021FFF7C5
:105020007FFD4FF4967000F065FD2046FFF7B8FF56
:10503000054608B16420F6E72046FFF741FF052347
:1050400000931A460321204602950195FFF7BAFD09
:10505000642000F04FFD012000E0002005B030BDCD
:1050600030E70320772310B50371044601F00AFFEF
:1050700020602046FFF79CFF30B97623237120463D
:10508000BDE81040FFF794BF10BD000010B5FA2135
:105090000446FFF7A5FEB0F5000F1ED0A28A9FEDD3
:1050A000107AC2EB20235200C2EBE010B4F91620B4
:1050B0005B435043B4F918201B1353439B1303EB7A
:1050C000E020E06000EB80008030001207EE900AE4
:1050D000F8EEE77A87EE870A10BD9FED020A10BD51
:1050E0000000C8420000C07F2DE9F84F0646FFF7D8
:1050F000CDFFF7213046FFF773FEB0F5000F0746EE
:1051000000F0C180F468B6F91C20E517B4F5FA3454
:1051100045F1FF35A4FB048904FB05F309EB4309C2
:1051200002FB05F1D31704FB0311A2FB04230B447C
:10513000190341EA12511003B6F91E20D31702FBDE
:1051400009FE08FB03EEA2FB082373444FEA122A70
:105150004AEA036A1AEB000A728B4FEA232B4BEBE5
:10516000010B1AF100004BF50041A0FB02AB02FB62
:1051700001BB4FEA6B024FEAEB7352EA030100F006
:105180008680B6F924A04FEAEA7B0AFB09F108FB06
:105190000B11AAFB0889B6F922A089444FEAEA7BE1
:1051A0000AFB05F104FB0B11AAFB04450D444FEA71
:1051B000454B4FEA444A38111AEB080AC0F58010F3
:1051C0004BEAD43B4BEB090B4FEAE0794FEAC97548
:1051D00045EA5005C407B6F920004FF0000818EB67
:1051E0000A084FEAC00949EB0B0940F63547B4EB12
:1051F000080465EB0905A4FB070107FB051103F093
:10520000D5FEB6F92A204C13450B45EAC14502FBF1
:1052100004F7D31705FB0377A2FB05233B44544354
:1052200005FB0344A2FB05232344540E44EAC314A4
:10523000B6F9282024184FEA63654D41D31751432E
:1052400000FB0313A2FB00011944C20C42EA4132E5
:105250001219B6F926404FEAE1436B41100AE517EF
:10526000220140EA036019122B0143EA14738018EB
:10527000594103F05DFE9FED080A07EE900A27EE04
:10528000800ABDE8F88F9FED050ABDE8F88F9FED15
:10529000040ABDE8F88F00BF0000803B0000C07F1B
:1052A0000000000010B50446FFF7F0FEFD21204687
:1052B000FFF728FDB0F5004F38D0B4F93230E2687E
:1052C000B4F934101B05A2F59632C3EB803302FB10
:1052D000113303F58043D91394F8303094F9360034
:1052E0005343DB124243921203F5004353439B1294
:1052F000B4F92E2003F50013534303F500539B1319
:105300004B43DA1394F82C105243D2114A43A3EBC7
:10531000221323EAE373B3F1C85FA8BF4FF0C85369
:105320001B1300EE103ABAEECB0A10BD9FED010A36
:1053300010BD00BF0000C07F00F0A8B910B5054B3C
:105340000360037C04461BB9406808B100F0A2FB6F
:10535000204610BD2C990D0010B50446FFF7EEFF56
:105360002046142101F0D5FD204610BD10B5034B99
:1053700003600446FFF7E2FF204610BD3C990D0094
:1053800010B50446FFF7F2FF2046302101F0C1FDC1
:10539000204610BD0023C36043610376437680F846
:1053A0002A307047002310B5C36001230374054BF6
:1053B00003604FF0FF3341608260C362FFF7EAFF92
:1053C00010BD00BF3C990D00C368826810B59342C0
:1053D0003FBF42685C1CC460D15424BF012380F8E5
:1053E0002A3010BD38B54469651C082D09D800EB7A
:1053F0004403012445619C76DA76FFF7E5FF2046F9
:1054000038BD002038BD10B54369044643B100EBF8
:105410004303597E09B1FFF7D7FF6369013B63611D
:10542000A368E068616898424FF000022ABF5B18E9
:105430000A5403F8012C10BD70B50446C068A56875
:1054400066682D1A134630440A46294600F032FB9E
:1054500085422DBFE368A368E360C01836BF01230F
:10546000E06084F82A3070BD0EB403B503AA52F888
:10547000041B0192FFF7E0FF02B05DF804EB03B0FC
:10548000704700002DE9F04104460E46174612B160
:105490002221FFF799FF0025715D06EB0508002921
:1054A00071D0E268A3689A426DD20B0633D501F041
:1054B000F003E02B17D198F8013003F0C002802AE6
:1054C00011D105F1020816F8082002F0C00080286A
:1054D00009D102F03F029B0142EA013203F47C63EE
:1054E0001A4392B211E001F0E003C02B46D105F15E
:1054F000010816F8083003F0C002802A3ED1890165
:1055000001F4F86203F03F031A4323492046FFF7F2
:10551000ABFF454635E00C2918D00BD8092921D01E
:105520000A2919D0082929D15C212046FFF74CFF10
:10553000622123E022291BD05C2919D00D291DD11D
:105540005C212046FFF740FF722117E05C212046D6
:10555000FFF73AFF662111E05C212046FFF734FF98
:105560006E210BE05C212046FFF72EFF742105E041
:105570005C212046FFF728FF98F800102046FFF72F
:1055800023FF013588E72FB120462221BDE8F041F5
:10559000FFF71ABFBDE8F08149990D00426900EBA1
:1055A00042031A7E12B100221A7670472C21FFF7AF
:1055B0000BBF000037B5044610EE100AE56A002D57
:1055C0000ADB03F091F82A46CDE90001084920469C
:1055D000FFF74AFF03B030BD03F086F80B460549DC
:1055E0000246204603B0BDE83040FFF73DBF00BF94
:1055F0005B990D0060990D0000F048B808B5024BAA
:105600001B689B68019308BD4802030008B5024B64
:105610001B681B69019308BD4802030008B5024BD3
:105620001B685B69019308BD4802030008B5024B83
:105630001B681B6B019308BD4802030008B5024BB1
:105640001B689B6B019308BD4802030008B5024B21
:105650001B681B6C019308BD4802030008B5024B90
:105660001B685B6C019308BD4802030008B5024B40
:105670001B685B68019308BD1802030008B5024B64
:105680001B685B69019308BD1802030008B5024B53
:105690001B681B68019308BD2C02030008B5024B70
:1056A0001B685B68019308BD2C02030008B5024B20
:1056B0001B689B68019308BD2C02030008B5024BD0
:1056C0001B68DB68019308BD2C02030008B5024B80
:1056D0001B681B69019308BD2C02030008B5024B2F
:1056E0001B685B69019308BD2C02030008B5024BDF
:1056F0001B681B6B019308BD2C02030008B5024B0D
:105700001B68DB6C019308BD2C02030008B5024B3B
:105710001B68DB68019308BD2802030008B5024B33
:105720001B685B69019308BD2802030008B5024BA2
:105730001B689B69019308BD2802030008B5024B52
:105740001B68DB69019308BD2802030008B5024B02
:105750001B681B6A019308BD2802030008B5024BB1
:105760001B685B6A019308BD2802030008B5024B61
:105770001B689B6A019308BD2802030008B5024B11
:105780001B68DB6A019308BD2802030008B5024BC1
:105790001B681B6B019308BD2802030008B5024B70
:1057A0001B685B6B019308BD2802030008B5024B20
:1057B0001B681B6C019308BD2802030008B5024B4F
:1057C0001B685B69019308BD6402030008B5024BC6
:1057D0001B689B68019308BD6802030008B5024B73
:1057E0001B68DB68019308BD6802030008B5024B23
:1057F0001B681B68019308BD3002030008B5024B0B
:105800001B685B69019308BD3002030008B5024BB9
:105810001B68DB69019308BD3002030008B5024B29
:105820001B681B6A019308BD3002030008B5024BD8
:105830001B685B6A019308BD3002030008B5024B88
:105840001B68DB6B019308BD3002030008B5024BF7
:105850001B681B68019308BD3C02030008B5024B9E
:105860001B68DB68019308BD3C02030008B5024BCE
:105870001B681B69019308BD3C02030008B5024B7D
:105880001B685B69019308BD3C02030008B5024B2D
:105890001B689B69019308BD3C02030008B5024BDD
:1058A0001B68DB69019308BD3C02030008B5024B8D
:1058B0001B681B6A019308BD3C02030008B5024B3C
:1058C0001B689B6A019308BD3C02030008B5024BAC
:1058D0001B681B68019308BD4C02030008B5024B0E
:1058E0001B685B68019308BD4C02030008B5024BBE
:1058F0001B681B69019308BD4C02030008B5024BED
:105900001B685B69019308BD4C02030008B5024B9C
:105910001B689B69019308BD4C02030008B5024B4C
:105920001B68DB69019308BD4C02030008B5024BFC
:105930001B681B6A019308BD4C02030008B5024BAB
:105940001B685B68019308BD2002030008B5024B89
:105950001B685B69019308BD2002030008B5024B78
:105960001B68DB6A019308BD2002030008B5024BE7
:105970001B68DB6C019308BD2002030008B5024BD5
:105980001B685B6D019308BD2002030008B5034B43
:105990001B68D3F88830019308BD00002002030083
:1059A00008B5034B1B68D3F89430019308BD000081
:1059B0002002030008B5024B1B685B69019308BD18
:1059C0004402030008B5024B1B681B6A019308BD23
:1059D0004402030008B5024B1B68DB6B019308BD52
:1059E0004402030008B5024B1B685B68019308BDC5
:1059F0004002030008B5024B1B689B68019308BD79
:105A00004002030008B5024B1B68DB68019308BD28
:105A10004002030008B5024B1B681B69019308BDD7
:105A20004002030008B5024B1B685B69019308BD87
:105A30004002030008B5024B1B689B69019308BD37
:105A40004002030008B5024B1B68DB69019308BDE7
:105A50004002030008B5024B1B681B6A019308BD96
:105A60004002030008B5024B1B681B6B019308BD85
:105A70004002030008B5024B1B685B6B019308BD35
:105A80004002030008B5024B1B681B68019308BD68
:105A90001C02030008B5024B1B685B68019308BD3C
:105AA0001C02030008B5024B1B689B68019308BDEC
:105AB0001C02030008B5024B1B685B6A019308BD1A
:105AC0001C02030008B5024B1B68DB6A019308BD8A
:105AD0001C02030008B5024B1B681B6B019308BD39
:105AE0001C02030008B5024B1B68DB6B019308BD69
:105AF0001C0203000021FFF729BF10B5836804468C
:105B00000BB901F008FAC3689847A3681BB10322D8
:105B100021462046984720461021BDE8104001F05C
:105B2000F8B910B5036804469B689847A368013B21
:105B3000A3602BB923682046DB68BDE810401847F6
:105B400010BD0B68036013B15A6801325A60704788
:105B500010B50446006828B14368013B43600BB9A7
:105B6000FFF7DFFF204610BD024800230360FFF768
:105B700075BD00BFC8E3032070470020704710B513
:105B80001021044601F0C5F9204610BD08B508B142
:105B9000FFF7F5FF08BD10B58368044613B1032273
:105BA00001469847204610BD0022026010B54FF60E
:105BB0009C728280B1F9044084808A8002680C68FB
:105BC00004600A6010BD10B504460068FFF762FF6C
:105BD000204610BD38B5C468F4B12378022B03D138
:105BE00004F10C00FFF7EFFF656835B12846FFF7B9
:105BF000D2FF1021284601F08CF9A56835B128465E
:105C0000FFF7C9FF1021284601F083F9204614212F
:105C1000BDE8384001F07DB938BD13B5044691E8C0
:105C2000050000234B600B602060626001A80193B7
:105C30000093FFF78DFF204602B010BDF7B50C466C
:105C400002AD54F8043B45F8083D06460F4601A84E
:105C50002146FFF776FF29463046FFF7DEFF01A811
:105C6000FFF776FF2046FFF773FF3846082101F063
:105C700050F9304603B0F0BD13B50B46044603C8D7
:105C80008DE8030093E8030084E803009DE8030027
:105C900083E8030002B010BD38B50023044603605A
:105CA00010200D46FEF7F9F928B101234360836007
:105CB000024B0360C5602060204638BD78990D0016
:105CC000826810B50AB901F026F9C368BDE8104032
:105CD000184708B5006800F11001FFF7F1FF08BD93
:105CE000826810B50AB901F016F9C368BDE8104022
:105CF000184708B5006800F11001FFF7F1FF08BD73
:105D000038B5002383608B6804460D462BB1022210
:105D10009847EB68E360AB68A360204638BD00009D
:105D2000F0B589B004686846FFF73EFF00238DF8A0
:105D300008304FF00202D4E84F3F002B03D1C4E8F3
:105D4000412F0029F7D102D08DF8083063E014F11B
:105D50000C0503D069462846FFF726FFBFF35F8F87
:105D600001236370002004F10803BFF35F8F53E841
:105D7000006F43E80002002AF9D1BFF35F8F002EC5
:105D800049D0FFF7F3FD20B129463046FFF798FFD1
:105D90003AE0314602A8FFF7B3FFE068B4F91050CB
:105DA00008B103F011FB06901020ADF81C50FEF76F
:105DB00074F90546E8B1002787601820FEF76DF9F1
:105DC000044688B10146876002A8FFF755FF049B8F
:105DD000A268A360059B049206A9E268E36004F14F
:105DE00010000592FFF7E0FE0D4BEB600D4B2C60B1
:105DF000AB6006A8FFF7E7FE02A8FFF7CCFE002283
:105E000029460948FFF7BAFD3046FFF7C4FE1021C6
:105E1000304601F07EF86846FFF7D5FE09B0F0BDC8
:105E2000D35C0D00495F0D00FB5A0D002DE9F04FCA
:105E30008BB006460F46904699469DF850A0FFF756
:105E4000B9FD07AD834630BB4FF62E73059005A90B
:105E50002846ADF81830FFF7A7FE1420FEF71DF90D
:105E6000044658B10223037001234370C0F804B004
:105E7000C0F808B029460C30FFF796FE30462146A0
:105E800040F8044BFFF708FF2846FFF79CFE05A8E3
:105E9000FFF799FE52E000240C2314206C60AC60E4
:105EA0000793FEF7FAF8014618B104704470446095
:105EB000846004A80391FFF7EFFE224B08930820AB
:105EC000FEF7EBF8044628B1039B40F8043B04A915
:105ED000FFF737FE00955FFA8AF34A464146384697
:105EE0000994FFF76FFD20B9039B5B7803F0FF0275
:105EF00083B1039B059304A906A8FFF722FE05A919
:105F00003046FFF78AFE06A8FFF722FE04A8FFF737
:105F10001FFE13E04FF69C7305A903A80592ADF888
:105F20001830FFF7FDFE05A8FFF74DFE05A80999FB
:105F3000FFF784FE06A8FFF70BFEDAE730460BB04A
:105F4000BDE8F08FB9600D00022AF8B5044606D00E
:105F5000032A17D0012A22D10B6803601FE0182002
:105F60000E68FEF79AF8054650B13146FFF7C8FEB5
:105F70003069B6F9147008B103F026FA2861AF82CF
:105F800025600CE0046854B104F11000FFF71BFE1B
:105F90002046FFF700FE1821204600F0BAFF00203F
:105FA000F8BD38B5002383608B6804460D462BB1DD
:105FB00002229847EB68E360AB68A360204638BDD7
:105FC000022A70B5044606D0032A11D0012A18D13E
:105FD0000B68036015E014200E68FEF75EF80546B6
:105FE00020B13146FFF7DDFF337C2B74256008E0DC
:105FF000046834B12046FFF7CEFD1421204600F09E
:1060000088FF002070BD0000F0B5002387B00C466B
:10601000BFF35F8F50E8006F40E80032002AF9D1EB
:10602000BFF35F8F002E3FD01846FFF79FFC074657
:1060300020B121463046FFF753FE2EE0314601A83D
:10604000FFF7AFFF23788DF814301020FEF725F806
:106050000546D0B187601420FEF71FF8044678B1DA
:106060008760014601A8FFF707FE039BA268A360B3
:10607000049B0392E268E3609DF814300492237459
:106080000A4BEB600A4B2C60AB6001A8FFF783FD65
:10609000002229460748FFF771FC3046FFF77BFDD9
:1060A0001021304600F035FF07B0F0BDF35C0D0065
:1060B000C15F0D00FB5A0D0030B585B004460D469A
:1060C00068461146FFF7BAFD7CB124B228460DB1EF
:1060D00003F07AF9029002A96846ADF80C40FFF788
:1060E0001FFE02A8FFF76FFD1DE000988DF8084025
:1060F0004FF00102D0E84F3FA34203D1C0E8412F47
:106100000029F7D102D08DF808300CE010F10C0115
:106110004FF0010318BF0373BFF35F8F043000F823
:10612000033CFFF771FF01A8FFF712FD05B030BD7A
:10613000002211464068FFF78DBC002211464068DE
:10614000FFF798BC00224068FFF78CBC002281F06A
:1061500001014068FFF776BC00231A4619464068E3
:10616000FFF768BC00231A4619464068FFF75ABC7F
:10617000002211464068FFF74DBC002211464068DE
:10618000FFF738BC002202214068FFF73BBC002328
:106190001A464068FFF726BC024B03225A60024AA7
:1061A0001A607047CCE3032094990D007047F8B54E
:1061B000064615460C468F18BC4206D0336814F8C4
:1061C000011B9B6830469847F6E72846F8BD002239
:1061D000007CFFF7BBBA0021007CFFF7BFBA0021AB
:1061E000007CFFF7C3BA0021007CFFF7C7BA00218B
:1061F000007CFFF7CBBA10B51421044600F089FEED
:10620000204610BD10B504464FF47A730846A360CB
:106210000021044B207461602360FFF7C7FA204619
:1062200010BD00BFC8990D0000231A461946007C16
:10623000FFF76CBA13B50024007C0094FFF76EFAE8
:10624000C0B202B010BD0123FFF7F4BF0022007CF2
:10625000FFF76CBAC9B2FFF7F9BF0022007CFFF765
:106260006DBA0121FFF7F9BF0021007CFFF796BA54
:10627000704710B51821044600F04BFE204610BDB3
:10628000F0B5037D062B8DB00E4600F104074FF0EC
:10629000000402D000F1080518E00CAD394605F8FD
:1062A000304D2F232A460A20FFF788FA284603F0AC
:1062B000A6F833680246DB682946304698470FE067
:1062C00024B12E21304600F0CDF9044415F8011D0B
:1062D0000A22304600F00CFABD420444F0D12046B8
:1062E0000DB0F0BD10B5054B0446112240F8043B3B
:1062F000002103F038F8204610BD00BFF0990D00D2
:106300000346074A10B543F8042B01F1100251F877
:10631000044B43F8044B9142F9D10A781A7010BD2E
:10632000F0990D0010B59DF8084044EA032343EAB4
:10633000024242EA016104234160037510BD37B592
:106340000D788B784A78C97800912946FFF7EAFFE3
:1063500003B030BD014B024A1A607047D4E30320FA
:106360006F9A0D00002211464068FFF773BB0022B0
:1063700011464068FFF77EBB00224068FFF772BB02
:10638000002281F001014068FFF75CBB00231A4640
:1063900001214068FFF74EBB00231A4619464068AA
:1063A000FFF740BB002211464068FFF733BB0022D5
:1063B00011464068FFF71EBB002202214068FFF72C
:1063C00021BB00231A464068FFF70CBB38B50546D1
:1063D00088B104684CB1A3681BB103222146204652
:1063E00098471021204600F094FD28461421BDE86E
:1063F000384000F08EBD38BD10B103685B681847A7
:10640000704710B503680446BBB15868FFF7F6F84B
:1064100078B923685A7C12B95868FFF7F7F82368EF
:106420005868FFF7FBF820680023236028B1FFF7C6
:10643000CDFF206808B1FFF7C9FF204610BD00005E
:1064400038B50C4B03600446D0F8CC0108B1FDF719
:1064500028FED4F8C45135B12846FFF7D2FF0421F5
:10646000284600F056FDA06808B1FFF7C5FF20469A
:1064700038BD00BFE09A0D0038B50E4C0E4B2360BE
:106480000025022304F5E4706360A560C4F8C451DC
:10649000C4F8C851FFF7E2F8084BC4F8CC5184F8AF
:1064A000D05123602046064A0649BDE8384000F036
:1064B0002BBD00BFD8E30320149B0D00E09A0D0014
:1064C00044E3032041640D0000231A464068FFF7AF
:1064D00089BA002202214068FFF794BA00221146CF
:1064E0004068FFF787BA002211464068FFF792BA6A
:1064F00000231A4619464068FFF794BA00231A464B
:1065000019464068FFF796BA002281F00101406801
:10651000FFF798BA00224068FFF7A4BA002211469C
:106520004068FFF7A7BA002211464068FFF792BA09
:106530002DE9F043002495B016460D460746FFF7B7
:10654000D1FE214620220CA8009402F00CFF40232B
:106550000C9321466B460CAA3046FFF73FF90446E0
:10656000002844D1024601216868FFF753FA02214E
:10657000804622466868FFF74DFA009E8146214614
:10658000002E34D0002932D17368022B02D00A2B9E
:1065900009D02AE0B8F1000F27D0716938460431DC
:1065A000FFF7CDFE20E0B9F1000F1ED07469112273
:1065B00001A802F0D8FE06238DF8143001AD04F1D5
:1065C00008031834186859682A4603C20833A342DE
:1065D0001546F7D101A906A807ADFFF791FE0FCD2B
:1065E0003C1D0FC42B6823700121F669C8E7009891
:1065F000FFF7ECF8384615B0BDE8F083024B034ACC
:106600001A6000225A607047ACE50320149B0D000D
:10661000F8B506460D468F180024BD420CD03368ED
:1066200015F8011B9B6830469847002801DB04449D
:10663000F3E7002C08BF04462046F8BD70B50546B8
:106640000C46084649B102F0DAFE2B6802462146A4
:106650002846DB68BDE87040184770BD08B5FFF7F5
:10666000EDFF08BD03689B68184738B50D21054646
:10667000FFF7F8FF0A2104462846FFF7F3FF2044FE
:1066800038BD38B50546FFF7D9FF04462846FFF761
:10669000ECFF204438BD30B58BB00B4600218DF89F
:1066A0002410012A98BF0A220DF12304B3FBF2F54E
:1066B00005FB123303F0FF03092B94BF303337334C
:1066C000DBB2214604F801392B46002DEED1FFF74D
:1066D000B5FF0BB030BD10B42AB903685DF8044BA8
:1066E0009B68C9B21847D2B25DF8044BFFF7D3BF1D
:1066F000FFF7F1BF0CB42DE9F04387B000AF07F10D
:106700003804054654F8049B3C600E4623464A462E
:106710001421381DFFF7CEF9132805D8391D284656
:10672000FFF78CFF044613E000F1080323F0070392
:10673000E846ADEB030D411C23464A4668463C60E3
:10674000FFF7B8F969462846FFF778FF0446C546C3
:106750001EB12846FFF789FF044420461C37BD467A
:10676000BDE8F04302B0704710B50446FFF713FAD6
:10677000204610BD0348044A04490023836000F00A
:10678000C3BB00BFB4E5032044E3032069670D00E9
:10679000704710B51021044600F0BBFB204610BD29
:1067A00070B5084B0360044600250E4640F80C5FA8
:1067B000FEF73CFF30462671FFF728F8A56020461B
:1067C00070BD00BF489B0D004FF6FF710079FFF7C9
:1067D0000DB8C068FEF73ABF400830B51860002415
:1067E00018688842E5B206D90134082C02D0400866
:1067F0001860F5E70725024B5B5D137030BD00BFE5
:10680000509B0D002DE9F04380468FB0C0680F46C5
:10681000FEF714FF98F804401422002109A802F0A2
:10682000A2FD0B232046002209A9ADF82430FEF773
:10683000FDFF9DF82D404CB19DF82C502DB90C9EBC
:106840009DF834909DF8354003E00024A14626468B
:1068500001253B790DB1002B40D19D420BD1BA6887
:10686000B24208D18DF820908DF82140BDF820105B
:10687000BA89914232D023BB8DF80F300DF10F024F
:1068800004ABB9680A98FFF7A7FF3B7905B113BBC2
:10689000AB4209D000213B7B01917C7B9DF80F200E
:1068A00098F80400009413E0BB68B342F2D38DF86B
:1068B00020908DF82140BDF82020BB899A42E9D173
:1068C00009E0002398F80400019300931A4601217F
:1068D000FEF7B4FF02E0049BB342DBD100200FB00F
:1068E000BDE8F08308B50079FEF788FFC0B208BDA7
:1068F0000079FEF793BF10B504460068FFF7CAF8A9
:10690000204610BD10B50446006808B1FFF7C2F874
:1069100000232360A360636010BD38B504460D46B4
:1069200000680131FFF7BEF810B184E821000120B2
:1069300038BD10B50368044613B143688B4207D2D3
:106940002046FFF7EAFF20B1A3680BB92268137055
:10695000012010BD70B50E46114604461546FFF7DE
:10696000E8FF18B92046FFF7CDFF09E02A46314677
:10697000A560206802F0ECFC2268A3680021D154D5
:10698000204670BD38B50023044603604360836031
:1069900003730D4639B1084602F031FD294602461F
:1069A0002046FFF7D7FF204638BD884210B50B467A
:1069B000044607D0096819B19A68FFF7CBFF01E0D8
:1069C000FFF7A0FF204610BD10B50023044603606A
:1069D000436083600373FFF7E8FF204610BD38B5BE
:1069E00005460C4641B1084602F009FD2146024623
:1069F0002846FFF7AFFF01E0FFF784FF284638BDC8
:106A0000044B00204FF6FF72187058809A80FEF7F2
:106A100095BF00BFC4E50320024B1A68024B1A6001
:106A2000704700BFD8E20320CCE5032070474174D3
:106A3000704708B5007CFEF741FF20EAE07008BD12
:106A400008B5007CFEF712FF20EAE07008BD08B52B
:106A5000007CFEF71BFF30EA200028BF4FF0FF301C
:106A600008BD08B5007CFEF709FF30EA200028BF0A
:106A70004FF0FF3008BD007CFEF710BF10B51421A9
:106A8000044600F046FA204610BD70B5457C044629
:106A90000E4625B9007CFEF711FF002805DD3146C2
:106AA000207CBDE87040FEF7D9BE284670BD0000CE
:106AB00010B5044608461146002262604FF47A720F
:106AC000A260054A22600122207462741A46FEF711
:106AD000BDFE204610BD00BF8C9B0D00007CFEF764
:106AE000E5BE000038B50C4D296811F0010411D144
:106AF0002846FDF7D8FA68B1084A094B09482146EB
:106B0000FFF7D6FF2846FDF7D3FA074A074905489D
:106B100000F0FAF9034838BD68E603206CE603206C
:106B2000E4E50320D0E5032044E303202D6A0D00B3
:106B300041747047704708B50021007CFEF7E6FEFF
:106B400030EA200028BF4FF0FF3008BD08B5012112
:106B5000007CFEF7DBFE30EA200028BF4FF0FF305C
:106B600008BD08B5007CFEF7C9FE20EAE07008BD4C
:106B700008B5007CFEF7BAFE20EAE07008BD007C94
:106B8000FEF7D4BE10B51421044600F0C2F9204629
:106B900010BD38B50446007C0D46FEF7AFFE002858
:106BA00001DC607C28B12946207CFEF7B7FE20EA94
:106BB000E07038BD10B50446002363604FF47A736B
:106BC000A360054B236001230846217463741146BA
:106BD000FEF77CFE204610BDBC9B0D000022007C11
:106BE000FEF77CBE10B514220446002102F0BBFB68
:106BF000204610BD30B50E4D87B001A8FFF7F2FF5B
:106C0000296811F0010410D12846FDF74CFA60B153
:106C100001AA21460748FFF7CDFF2846FDF748FAAD
:106C2000054A0649034800F06FF9024807B030BD35
:106C3000F0E60320F4E6032044E30320356B0D0067
:106C4000002211464068FEF7E5BE0022114640686A
:106C5000FEF700BF002211464068FEF70BBF00227E
:106C60004068FEF7FFBE002281F001014068FEF798
:106C7000E9BE00231A4619464068FEF7DBBE002332
:106C80001A4619464068FEF7CDBE002211464068FC
:106C9000FEF7B0BE002202214068FEF7B3BE00231B
:106CA0001A464068FEF79EBE024B04225A60024A12
:106CB0001A60704708E70320EC9B0D0008B50C4BE9
:106CC00033B1FFF797FF03681B699847002809DC79
:106CD000084B63B1FFF706FF03681B69984700285C
:106CE00003DC08BDAFF30080F2E7AFF3008008BD1E
:106CF000000000000000000008B5FFF7DFFFFEF70E
:106D0000BDFC014B186008BD14E7032007B5002344
:106D100000931A466FF07701FEF742FE03B05DF86C
:106D200004FB000007B543880A2B08D0502B09D17B
:106D3000094B1B683BB103B05DF804EB1847FFF744
:106D4000E5FF06E0002300931A466FF07701FEF797
:106D500027FE03B05DF804FB10E7032010B5FEF733
:106D600085FC044602F008FB074B13B12046AFF345
:106D7000008000210448FEF72DFE00210348BDE8F5
:106D80001040FEF703BE00BF00000000256D0D009F
:106D900010B504460F48FFF7ABFD28B1A4F10B0373
:106DA000022B01D8002010BD00F06CF8FFF75CFA50
:106DB00008B1012CF6D9FFF795FEFFF78FFE18B149
:106DC000A4F10903012BEDD9232C8CBF0020012055
:106DD00010BD00BF30E70320232838B504460D4618
:106DE0000AD8FF2908D0FFF7D3FF28B1294620464B
:106DF000BDE83840FEF75ABC38BD38B504460D46EC
:106E0000FEF75CFCFF2810D0062804D84D2323FA97
:106E100000F0C30709D42046FFF7BAFF28B129467E
:106E20002046BDE83840FEF751BC38BD10B50446D9
:106E3000FEF744FC0438C0B2012808D92046FFF709
:106E4000A7FF20B12046BDE81040FEF747BC002058
:106E500010BD0D2810B504469CBF0E34A4B22046C8
:106E6000FFF796FF50B103212046FEF717FC0328D9
:106E700004D12046BDE81040FEF738BC002010BD0C
:106E8000FEF73CBC38B50B4D296811F001040FD159
:106E90002846FDF708F958B121460748FFF7B2F92F
:106EA0002846FDF705F9054A0549034800F02CF886
:106EB000014838BD18E703201CE7032044E3032002
:106EC000AD610D0070B50C4C0C4E0D4D00212046EF
:106ED000FFF766FC20460B4C3246294600F014F8BA
:106EE00001212046FFF75CFC324629462046BDE8DA
:106EF000704000F009B800BF30E7032044E30320EE
:106F000091670D0040E703200B460146184602F04A
:106F100011BAFDF7C4B808B5FEF7D4FD244B1A68C2
:106F2000D0075CBF01221A60224B1A68D1075CBFF0
:106F300001221A60204B1A68D2075CBF01221A6036
:106F40001E4B1A68D0075CBF01221A601C4B1A68DE
:106F5000D1075CBF01221A601A4B1A68D2075CBFC6
:106F600001221A60184B1A68D0075CBF01221A6010
:106F7000164B1A68D1075CBF01221A60144B1A68BD
:106F8000D2075CBF01221A60124B1A68D0075CBF9F
:106F900001221A60104B1A68D1075CBF01221A60E7
:106FA0000E4B1A68D2075CBF01221A60704700BFFF
:106FB0007CE7032078E7032074E7032070E70320D1
:106FC0006CE7032068E7032064E7032060E7032001
:106FD0005CE7032058E7032054E7032050E7032031
:106FE000184B1A68D1075CBF01221A60164B1A6849
:106FF000D2075CBF01221A60144B1A68D0075CBF2D
:1070000001221A60124B1A68D1075CBF01221A6074
:10701000104B1A68D2075CBF01221A600E4B1A6827
:10702000D0075CBF01221A600C4B1A68D1075CBF05
:1070300001221A600A4B1A68D2075CBF01221A604B
:10704000704700BF9CE7032098E7032094E70320E4
:1070500090E703208CE7032088E7032084E70320E0
:1070600080E70320184B1A68D1075CBF01221A6021
:10707000164B1A68D2075CBF01221A60144B1A68BB
:10708000D0075CBF01221A60124B1A68D1075CBF9F
:1070900001221A60104B1A68D2075CBF01221A60E5
:1070A0000E4B1A68D0075CBF01221A600C4B1A689D
:1070B000D1075CBF01221A600A4B1A68D2075CBF75
:1070C00001221A60704700BFBCE70320B8E7032025
:1070D000B4E70320B0E70320ACE70320A8E70320D0
:1070E000A4E70320A0E70320244B1A68D0075CBF65
:1070F00001221A60224B1A68D1075CBF01221A6074
:10710000204B1A68D2075CBF01221A601E4B1A6816
:10711000D0075CBF01221A601C4B1A68D1075CBF04
:1071200001221A601A4B1A68D2075CBF01221A604A
:10713000184B1A68D0075CBF01221A60164B1A68F8
:10714000D1075CBF01221A60144B1A68D2075CBFDA
:1071500001221A60124B1A68D0075CBF01221A6024
:10716000104B1A68D1075CBF01221A600E4B1A68D7
:10717000D2075CBF01221A60704700BFECE7032012
:10718000E8E70320E4E70320E0E70320DCE703204F
:10719000D8E70320D4E70320D0E70320CCE703207F
:1071A000C8E70320C4E70320C0E703200000000075
:1071B0002DE9F04F2DED028BDFF824A38BB057ECB7
:1071C000106B55EC114B00F08FF99AF90080B0EE7E
:1071D000408AF0EE608AB8F1FF3F48D022462B4645
:1071E0002046294601F06EFD834600283FD13246F5
:1071F0003B463046394601F065FD8146002840F0A7
:107200009080304639460022002301F029FD0028F5
:1072100036D0002200232046294601F021FD834676
:10722000B8B19FEDA57B0122A94BCDF8209000922B
:10723000CDE90267CDE904458DED067B0193B8F1F8
:10724000000F5BD09FED9E0B0BB0BDEC028BBDE839
:10725000F08F45EC104B00F0A7FF40B10022002357
:107260002046294601F006FD002840F0C580B0EE1A
:10727000480AF0EE680A0BB0BDEC028BBDE8F08F57
:10728000B0EE480AF0EE680A00F08EFF8046002853
:1072900061D04FF000084FF0000951EC180B424646
:1072A0004B4601F0DDFC0028E1D047EC106B00F00C
:1072B0007BFF0028DBD045EC104B00F075FF002869
:1072C000D5D09AF90030824A019204210022022B83
:1072D000CDE90267CDE90445CDE906890091089220
:1072E00003D0684600F068FF70B9FEF7FBFB22236D
:1072F000036009E09FED707B8DED067B684600F032
:107300005BFF002800F08E80089B1BB1FEF7EAFBB4
:10731000089B03609DED060B0BB0BDEC028BBDE836
:10732000F08F002200232046294601F099FC002816
:107330009DD09FED630B664BCDF820B00122B8F1D4
:10734000020FCDE90267CDE904458DED060B8DE80E
:107350000C00D3D18FE747EC106B00F025FF00281D
:1073600097D045EC104B00F01FFF002891D053EC54
:10737000182B18EE100A194601F0A4FC00287CD145
:1073800003239AF900800093514B0890CDE90267DE
:10739000CDE904450193B8F1000F48D1DFF84491DD
:1073A0004FF060480022002330463946CDE9068977
:1073B00001F060FC002894D00022464B204629466C
:1073C00001F0E6F904460D4645EC104B00F000FFD5
:1073D000204653EC102B294601F042FC002849D1ED
:1073E0003D4B9AF900804FF06042CDE90623B8F199
:1073F000020F7FF476AF78E7354A9AF90030CDF87E
:1074000020B00121CDE90267CDE904458DE80600F1
:10741000002B3FF46FAF31490020022BCDE906016C
:107420007FF46CAFFEF75EFB212303606CE79FEDFA
:10743000267B00220023304639468DED067B01F085
:1074400019FC0028D3D00022224B2046294601F007
:107450009FF904460D4645EC104B00F0B9FE20465E
:1074600053EC102B294601F0FBFB18B91B4B0022F3
:10747000CDE906239AF90080B9E7154B9AF90090F7
:10748000CDF820800122CDE90267CDE904458DE8E1
:107490000C00B9F1000F3FF42DAF0022002310467D
:1074A000194601F09FFAB9F1020FCDE90601B9D0F2
:1074B00024E700BFAFF300800000000000000000E0
:1074C000000000000000F03F000000000000F07F1E
:1074D000189C0D000000E03FFFFFEFC70000F0FF29
:1074E000DCE20320FFFFEF472DE9F04F51EC110BD9
:1074F00021F0004858EA000493B03CD053EC102B24
:107500006D4E23F00044B44210EE10AA1D462BDC51
:10751000894611EE10EA26D0B04525DC664EB0450E
:1075200077D0002D16461F46CDE9000175DB4FF0E0
:10753000000BBEF1000F2DD15F4B984500F0898004
:107540005E4B98455ED0B9F1804F00F0DE835C4B16
:1075500099451FD1002D1DDB47EC106B13B0BDE822
:10756000F04F00F049BD5AB104F1404404F58014D5
:1075700054EA0A0306D19FED4A0B13B0BDE8F08F21
:10758000A045CBDD4F4813B0BDE8F04F00F018BE6A
:107590004FF0000B47EC106B00F0FEFD51EC100BB0
:1075A000BAF1000F1ED0ED0F05F1FF3A5BEA0A03B6
:1075B00063D0454B984540F38D8003F104739845A3
:1075C00040F33884414B9C4262DDB9F1000F62DD2B
:1075D00035A3D3E900231046194601F0D9F841EC50
:1075E000100BCAE724B1354B25F040429A42DAD15C
:1075F000B9F1000FC0F2CB83002DC0F2748341ECCF
:10760000100BBAE7B9F1000FC0F27A8447EC106BA7
:10761000B3E7BEF1000F84D0A6E72D4B984529DCD7
:10762000A3F15473984582DD4FEA2853A3F2FF3348
:10763000142B40F37F84C3F134032EFA03F202FAD1
:1076400003F39E457FF473AF02F00102C2F1020B17
:107650006FE704F1404303F5801353EA0A038AD02D
:107660001A4B9C4240F38583B9F1000F13DB9DED6B
:10767000000B82E74FF0020B5BE732463B461046B9
:10768000194600F0D1FE02460B4601F0ABF9B6E711
:10769000B9F1000F9CDB9FED060B6EE7AFF30080A6
:1076A000000000000000F03F9C7500883CE4377E3D
:1076B00000000000000000000000F07F0000F03F2C
:1076C0000000E03F1C9C0D000000E041FFFFEF3F89
:1076D000FFFF3F43B4F5801F4FF0000205DAD64BA1
:1076E00001F056F86FF034020C462315D34EC4F364
:1076F0001304A3F2FF33134444F07F55B4421A46F7
:107700000D9345F4401540F34983CD4B9C4240F323
:107710002D849FEDB37B8DED087B8DED0E7B9FED72
:10772000B27B13468DED067B01330D93A5F58015D5
:107730004FF00008DDE906232946CDE90A0100F0F3
:1077400073FEDDE9062306460F46DDE90A0100F077
:107750006DFE02460B460020BA4901F043F903468C
:107760000C46CDE9103402460B463046394601F04E
:107770000FF86B1043F0005303F5002303EB0805EB
:107780000A4600230146CDE902120293DDE902898F
:107790000024CDE904122B4622464046494600F01B
:1077A000F7FF02460B463046394600F03DFEDDE964
:1077B000062306460F462046294600F035FE0246BF
:1077C0000B46DDE90A0100F02FFE42464B4600F071
:1077D000DFFF02460B463046394600F025FEDDE964
:1077E000102300F0D5FFDDE90445CDE9060122466E
:1077F0002B462046294600F0CBFF7DA3D3E900238A
:1078000004460D4600F0C4FF7BA3D3E9002300F03B
:107810000DFE22462B4600F0BBFF79A3D3E90023DF
:1078200000F004FE22462B4600F0B2FF76A3D3E917
:10783000002300F0FBFD22462B4600F0A9FF74A3B5
:10784000D3E9002300F0F2FD22462B4600F0A0FF12
:1078500071A3D3E9002300F0E9FD224606460F4656
:107860002B462046294600F093FF02460B46304641
:10787000394600F08DFF424604460D464B46DDE991
:10788000040100F0D3FDDDE9062300F081FF22466C
:107890002B4600F0CBFD424606460F464B4640467F
:1078A000494600F075FF0022674BCDE90A0100F060
:1078B000BDFD32463B4600F0B9FD02980D46044638
:1078C00022462B464046494600F062FF0022804691
:1078D00089465D4B2046294600F0A6FDDDE90A23D6
:1078E00000F0A2FD02460B463046394600F09CFDF2
:1078F000DDE9042300F04CFF224606460F462B46E6
:10790000DDE9060100F044FF02460B4630463946E9
:1079100000F08CFD06460F4602460B46404649469F
:10792000CDE9048900F082FD02983DA3D3E900234C
:1079300004460D4600F02CFFDDE90423804689460D
:107940002046294600F070FD02460B463046394677
:1079500000F06AFD34A3D3E9002300F019FF34A33B
:10796000D3E9002306460F462046294600F010FFC3
:1079700002460B463046394600F058FDDDE90E233D
:1079800000F054FD06460D980F4600F09BFE32466F
:1079900004460D463B464046494600F047FDDDE9BA
:1079A000082300F043FD22462B4600F03FFD0298DD
:1079B00022462B46CDE9020100F036FDDDE9082321
:1079C00000F032FD42464B4600F02EFD02460B46CB
:1079D0003046394600F028FD8046894636E000BF33
:1079E0000000000000000000000000000000F03F68
:1079F000EF4E454A287ECA3F65DBC9934A86CD3F94
:107A000001411DA96074D13F4D268F515555D53F79
:107A1000FFAB6FDBB66DDB3F033333333333E33F11
:107A2000000000E009C7EE3FFD033ADC09C7EE3F66
:107A3000F5015B14E02F3EBE000040438E9803002A
:107A400079B60B000000F03F000008400BF1FF3357
:107A500053EA0A0300F088819FEDD77B8DED067B0A
:107A6000DDE900AB53465C46CDE9003400230093CA
:107A7000DDE90045504622462B46594600F0D4FC2D
:107A8000DDE9022300F084FE524606460F465B46BF
:107A90004046494600F07CFE02460B4630463946D9
:107AA00000F0C4FC2246804689462B46DDE90201EF
:107AB000CDE9048900F06CFE0B46024606460F46EF
:107AC0004046494600F0B2FCD54B994204460D466B
:107AD0008A4640F3238101F13F4303F5E00303436A
:107AE00040F01882B6A3D3E90023DDE9040100F0D9
:107AF0009DFC3246804689463B462046294600F09A
:107B000093FC02460B464046494601F0D1F8002856
:107B100040F00082A8464FEA28534FF48012A3F2A7
:107B2000FE3342FA03F35344C3F30A52BD4DA2F2AB
:107B3000FF321541C3F3130B0020C2F1140423EAF2
:107B400005014BF4801BBAF1000F02460B464BFABD
:107B500004FB30463946B8BFCBF1000B00F064FCA3
:107B600002460B4606460F46DDE9040100F05EFCC6
:107B70004FEA0B5A002494A3D3E9002320460D4674
:107B800000F006FE3246804689463B46204629469E
:107B900000F04AFC02460B46DDE9040100F044FC1B
:107BA0008BA3D3E9002300F0F3FD8BA3D3E90023DB
:107BB00006460F462046294600F0EAFD02460B46DF
:107BC0003046394600F032FC06460F4602460B4668
:107BD0004046494600F02AFC42464B4604460D46C4
:107BE00000F022FC02460B463046394600F01CFCF1
:107BF0002246804689462B462046294600F0C8FD8D
:107C000077A3D3E9002306460F4600F0C1FD76A313
:107C1000D3E9002300F008FC32463B4600F0B8FDF3
:107C200073A3D3E9002300F001FC32463B4600F089
:107C3000AFFD71A3D3E9002300F0F6FB32463B46CB
:107C400000F0A6FD6EA3D3E9002300F0EFFB32465F
:107C50003B4600F09DFD02460B462046294600F0BB
:107C6000E3FB06460F4602460B462046294600F037
:107C70008FFD0022CDE900014FF0804330463946A8
:107C800000F0D2FB02460B46DDE9000100F0AAFE3F
:107C9000424606460F464B462046294600F078FDF0
:107CA00042464B4600F0C2FB02460B463046394680
:107CB00000F0BAFB22462B4600F0B6FB02460B460C
:107CC0000020594900F0B0FB8A44BAF5801F0246F3
:107CD0000B46C0F25B815146DDE9062300F058FDFA
:107CE00041EC100B49E404F1404404F5801454EADB
:107CF0000B0300F03781BBF1010F7FF480AC02462B
:107D000001F1004343EC102B37E432463B4630464A
:107D1000394600F03DFD41EC100B2EE4434B21F0C1
:107D20000048984540F31581414B0B4403430CD167
:107D300032463B4600F078FB02460B46DDE9040183
:107D400000F0A2FF00283FF4E6AE2FA3D3E9002302
:107D5000DDE9060100F01CFD2BA3D3E9002300F0B0
:107D600017FD41EC100B08E49FED297B8DED067BA0
:107D700076E6B9F1000FBFF68EACDDE9003400EE17
:107D8000103A04F1004300EE903AFFF7F6BB0246CA
:107D90000B460020244900F025FE2DE49FED1E7BBC
:107DA0008DED087B8DED0E7B9FED037B4FF0000882
:107DB0008DED067BBEE400BF000000000000F03F38
:107DC000FE822B654715973C00000000432EE63FDE
:107DD000EF39FAFE422EE63F396CA80C615C20BEFA
:107DE000D0A4BE726937663EF16BD2C541BDBB3EC1
:107DF0002CDE25AF6A56113F93BDBE166CC1663F9F
:107E00003E5555555555C53F59F3F8C21F6EA5014E
:107E1000000000000000F0BF0000000000000000B3
:107E2000FFFF8F40FFFF0F000000F03FFFCB9040AF
:107E300000346F3F6C4B9C427FF72AAC6B4B9C42EB
:107E40003FF7C3AB0022694B00F0EEFA56A3D3E92B
:107E5000002304460D4600F09BFC55A3D3E9002304
:107E6000804689462046294600F092FC0022CDE952
:107E700002015F4B2046294600F08AFC02460B4671
:107E80004DA1D1E9000100F0CFFA22462B4600F0C7
:107E90007FFC02460B460020564900F0C5FA2246F8
:107EA0002B4606460F462046294600F071FC024646
:107EB0000B463046394600F06BFC41A3D3E9002362
:107EC00000F066FC02460B46DDE9020100F0ACFA68
:107ED00002460B4604460D464046494600F0A6FAC7
:107EE00042464B460020CDE9020100F09DFA0246D1
:107EF0000B462046294600F097FA80468946A5E5BC
:107F000032463B460020394900F06CFD41EC100B35
:107F1000FFF733BB2CA3D3E90023DDE9060100F012
:107F200037FC29A3D3E9002300F032FC41EC100B0D
:107F3000FFF723BBBEF1000F7FF42AABC3F114039C
:107F400048FA03F202FA03F3984527D0F346FFF705
:107F5000F7BA284B98453FF7DEADDDE900349A4685
:107F60009B4607E602460B46FFF789BB9FED187B51
:107F70008DED087B9FED187B8DED0E7B9FED187BC3
:107F80004FF480288DED067BFFF7D4BB584643ECB9
:107F9000102B00F0B1F951EC100B9DE602F001023C
:107FA000C2F1020BFFF7CCBA000000604715F73FA3
:107FB00044DF5DF80BAE543E555555555555D53FEC
:107FC000FE822B654715F73F9C7500883CE4377EA1
:107FD0000000004003B8E23F06D0CF43EBFD4C3E2B
:107FE000000000000000F83FFEFFEF3F0000F03F00
:107FF0000000D03F0000E03F2DE9F041654955EC1D
:10800000104B0E462940B14200F09780002D2B46C0
:1080100010EE102A74DD2F157FD0A7F2FF37C3F3BF
:108020001303F90743F4801365D403EBD2710026E0
:108030000B447F105200B64616204FF400110EEB91
:1080400001049C424FEAD2754FEA420203DC1B1B3B
:1080500004EB010E0E44013805EB43034FEA5101D6
:10806000EDD1844620244FF0004109E020D003EBFD
:10807000D275013C4FEA51012B444FEA420220D015
:108080009E4501EB0C05F1DA002D05EB010C09DB37
:10809000F0469542CEEB030300D9013B521B084446
:1080A000C646E4E7BCF1000FF2DB0EF10108F0E791
:1080B00095421ED8002D05EB010C50DB984600239D
:1080C000ECE7134304D0421C4DD000F001031844E8
:1080D00040087110F30701F17F5101F5001148BF0D
:1080E00040F0004001EB0753024643EC102BBDE883
:1080F000F0817346BBE75B0003EBD273520094E759
:1081000025F00041214328D0ADBB2F46D30A153FAF
:108110005205002BFAD0DD0228D4002100E00146F0
:108120005B00DC0201F10100F9D5C0F1200422FA64
:1081300004F423437F1A82406FE710EE102A2B4687
:1081400010EE100A294600F023FB22462B4600F0D1
:108150006DF941EC100BBDE8F081BDE8F081BCF198
:10816000000FA2DAAAE701362046B2E720244FF03A
:10817000FF310020DBE710EE102A2B46204629466F
:1081800000F052F902460B4600F02CFC41EC100BBB
:10819000BDE8F0810000F07F53EC102B23F000438A
:1081A00043EC102B704700BF10EE903A43F00040B4
:1081B00000F58010C00F70470020704700000000DD
:1081C0009FED010B704700BF000000000000F87F2A
:1081D000F0B553EC102BC3F30A56A6F2FF30132868
:1081E00083B019464FEAD37410EE105A2FDC0028E2
:1081F00049DB3F4E064103EA060717432CD07608B9
:1082000033401D430CD04FF48023132821EA060687
:1082100043FA00F141EA06010CBF4FF0004500258A
:10822000344800EBC4042A46D4E9004510462B46E6
:10823000224600F0FBF8CDE9000122462B46DDE99D
:10824000000100F0F1F841EC100B03B0F0BD332851
:1082500006DDB0F5806F42D043EC102B03B0F0BDCB
:10826000A6F213464FF0FF30F0400242F4D040082F
:108270000242D5D04FF0804325EA000043FA06F6CB
:1082800046EA0005CCE723F00040104310EE107AD8
:10829000E2D0C3F313000743784207431548590C53
:1082A0003F0B490407F4002700EBC40047EA010331
:1082B000D0E90067194610463B46324600F0B6F852
:1082C000CDE900013B463246DDE9000100F0ACF8A3
:1082D00021F0004343EAC47141EC100BBEE710EEFD
:1082E000100A194600F0A2F841EC100BB6E700BFE7
:1082F000FFFF0F00209C0D0053EC102B70B5C3F353
:108300000A541946054614BB23F0004111432AD0F4
:1083100019460022384B394E10EE100A00F038FA98
:10832000B54202460B461FDBC1F30A54363C2C44CF
:1083300040F2FE7084421FDC002C2DDD21F0FF4155
:1083400021F4E00141EA045343EC102B70BD40F2EC
:10835000FF708442EBD110EE100A194600F066F867
:1083600041EC100B70BD70BD1FA3D3E9002300F0DA
:108370000FFA41EC100B70BD43EC112B9FED1C0B61
:1083800000F040F81AA3D3E9002351EC100B00F0E1
:10839000FFF941EC100B70BD14F1350F13DA4CF2FC
:1083A00050318D4243EC112BE8DC9FED0F0B00F0B8
:1083B00029F80DA3D3E9002351EC100B00F0E8F9E4
:1083C00041EC100B70BD21F0FF4121F4E001363487
:1083D00041EA0453104619460022094B00F0D8F92F
:1083E00041EC100B70BD00BF59F3F8C21F6EA50120
:1083F0009C7500883CE4377E00005043B03CFFFF92
:108400000000903C53EC102B11EE900A23F0004139
:1084100000F0004041EA000343EC102B704700BF1E
:1084200081F0004102E000BF83F0004330B54FEA25
:1084300041044FEA430594EA050F08BF90EA020F92
:108440001FBF54EA000C55EA020C7FEA645C7FEA25
:10845000655C00F0E2804FEA5454D4EB5555B8BF48
:108460006D420CDD2C4480EA020281EA030382EAB9
:10847000000083EA010180EA020281EA0303362D4B
:1084800088BF30BD11F0004F4FEA01314FF4801C1E
:108490004CEA113102D0404261EB410113F0004F30
:1084A0004FEA03334CEA133302D0524263EB4303E7
:1084B00094EA050F00F0A780A4F10104D5F1200E85
:1084C0000DDB02FA0EFC22FA05F2801841F10001E0
:1084D00003FA0EF2801843FA05F359410EE0A5F1B4
:1084E00020050EF1200E012A03FA0EFC28BF4CF0E5
:1084F000020C43FA05F3C01851EBE37101F000459B
:1085000007D54FF0000EDCF1000C7EEB00006EEBA7
:108510000101B1F5801F1BD3B1F5001F0CD3490831
:108520005FEA30004FEA3C0C04F101044FEA445288
:1085300012F5800F80F09A80BCF1004F08BF5FEA0F
:10854000500C50F1000041EB045141EA050130BDEF
:108550005FEA4C0C404141EB010111F4801FA4F192
:108560000104E9D191F0000F04BF01460020B1FAE7
:1085700081F308BF2033A3F10B03B3F120020CDA1F
:108580000C3208DD02F1140CC2F10C0201FA0CF0FD
:1085900021FA02F10CE002F11402D8BFC2F1200C62
:1085A00001FA02F120FA0CFCDCBF41EA0C01904018
:1085B000E41AA2BF01EB0451294330BD6FEA040461
:1085C0001F3C1CDA0C340EDC04F11404C4F120024C
:1085D00020FA04F001FA02F340EA030021FA04F35E
:1085E00045EA030130BDC4F10C04C4F1200220FAB5
:1085F00002F001FA04F340EA0300294630BD21FAF3
:1086000004F0294630BD94F0000F83F4801306BFB8
:1086100081F480110134013D4EE77FEA645C18BFAC
:108620007FEA655C29D094EA050F08BF90EA020F43
:1086300005D054EA000C04BF1946104630BD91EA3B
:10864000030F1EBF0021002030BD5FEA545C05D13E
:108650004000494128BF41F0004130BD14F580047D
:108660003CBF01F5801130BD01F0004545F0FE41F1
:1086700041F470014FF0000030BD7FEA645C1ABF26
:10868000194610467FEA655C1CBF0B46024650EA5D
:10869000013406BF52EA033591EA030F41F4002189
:1086A00030BD00BF90F0000F04BF0021704730B50F
:1086B0004FF4806404F132044FF000054FF00001E4
:1086C00050E700BF90F0000F04BF0021704730B5A5
:1086D0004FF4806404F1320410F0004548BF40427A
:1086E0004FF000013EE700BF42004FEAE2014FEACF
:1086F00031014FEA02701FBF12F07F4393F07F4FAA
:1087000081F06051704792F0000F14BF93F07F4FDB
:10871000704730B54FF4607401F0004521F000411E
:1087200020E700BF50EA010208BF704730B54FF0A4
:1087300000050AE050EA010208BF704730B511F0A9
:10874000004502D5404261EB41014FF4806404F1E1
:1087500032045FEA915C3FF4DCAE4FF003025FEA63
:10876000DC0C18BF03325FEADC0C18BF033202EBEB
:10877000DC02C2F1200300FA03FC20FA02F001FA45
:1087800003FE40EA0E0021FA02F11444C1E600BFE4
:1087900070B54FF0FF0C4CF4E06C1CEA11541DBF97
:1087A0001CEA135594EA0C0F95EA0C0F00F0DEF862
:1087B0002C4481EA030621EA4C5123EA4C5350EA47
:1087C000013518BF52EA033541F4801143F4801398
:1087D00038D0A0FB02CE4FF00005E1FB02E506F029
:1087E0000042E0FB03E54FF00006E1FB03569CF07E
:1087F000000F18BF4EF0010EA4F1FF04B6F5007F84
:1088000064F5407404D25FEA4E0E6D4146EB0606F5
:1088100042EAC62141EA55514FEAC52040EA5E507E
:108820004FEACE2EB4F1FD0C88BFBCF5E06F1ED828
:10883000BEF1004F08BF5FEA500E50F1000041EB5F
:10884000045170BD06F0004646EA010140EA02000C
:1088500081EA0301B4EB5C04C2BFD4EB0C0541EA2E
:10886000045170BD41F480114FF0000E013C00F343
:10887000AB8014F1360FDEBF002001F0004170BD67
:10888000C4F10004203C35DA0C341BDC04F1140480
:10889000C4F1200500FA05F320FA04F001FA05F20C
:1088A00040EA020001F0004221F0004110EBD370D9
:1088B00021FA04F642EB06015EEA430E08BF20EA05
:1088C000D37070BDC4F10C04C4F1200500FA04F3A8
:1088D00020FA05F001FA04F240EA020001F000413A
:1088E00010EBD37041F100015EEA430E08BF20EAAD
:1088F000D37070BDC4F1200500FA05F24EEA020EF5
:1089000020FA04F301FA05F243EA020321FA04F023
:1089100001F0004121FA04F220EA020000EBD370DA
:108920005EEA430E08BF20EAD37070BD94F0000FDA
:108930000FD101F00046400041EB010111F4801F0E
:1089400008BF013CF7D041EA060195F0000F18BFBF
:10895000704703F00046520043EB030313F4801FFB
:1089600008BF013DF7D043EA0603704794EA0C0FB5
:108970000CEA135518BF95EA0C0F0CD050EA4106CB
:1089800018BF52EA4306D1D181EA030101F0004148
:108990004FF0000070BD50EA410606BF1046194670
:1089A00052EA430619D094EA0C0F02D150EA01367C
:1089B00013D195EA0C0F05D152EA03361CBF1046BD
:1089C00019460AD181EA030101F0004141F0FE415C
:1089D00041F470014FF0000070BD41F0FE4141F4E0
:1089E000780170BD70B54FF0FF0C4CF4E06C1CEAE0
:1089F00011541DBF1CEA135594EA0C0F95EA0C0F95
:108A000000F0A7F8A4EB050481EA030E52EA03354F
:108A10004FEA013100F088804FEA03334FF0805570
:108A200045EA131343EA12634FEA022245EA11159D
:108A300045EA10654FEA00260EF000419D4208BF4E
:108A4000964244F1FD0404F5407402D25B084FEAFB
:108A50003202B61A65EB03055B084FEA32024FF4A7
:108A600080104FF4002CB6EB020E75EB030E22BF04
:108A7000B61A754640EA0C005B084FEA3202B6EBC4
:108A8000020E75EB030E22BFB61A754640EA5C0073
:108A90005B084FEA3202B6EB020E75EB030E22BF03
:108AA000B61A754640EA9C005B084FEA3202B6EB04
:108AB000020E75EB030E22BFB61A754640EADC00C3
:108AC00055EA060E18D04FEA051545EA16754FEA25
:108AD00006164FEAC30343EA52734FEAC2025FEA43
:108AE0001C1CC0D111F4801F0BD141EA00014FF0D2
:108AF00000004FF0004CB6E711F4801F04BF0143A3
:108B00000020B4F1FD0C88BFBCF5E06F3FF6AFAEBE
:108B1000B5EB030C04BFB6EB020C5FEA500C50F14E
:108B2000000041EB045170BD0EF0004E4EEA1131D1
:108B300014EB5C04C2BFD4EB0C0541EA045170BDD8
:108B400041F480114FF0000E013C90E645EA060E1C
:108B50008DE60CEA135594EA0C0F08BF95EA0C0F4A
:108B60003FF43BAF94EA0C0F0AD150EA01347FF492
:108B700034AF95EA0C0F7FF425AF104619462CE769
:108B800095EA0C0F06D152EA03353FF4FDAE1046CC
:108B9000194622E750EA410618BF52EA43067FF41D
:108BA000C5AE50EA41047FF40DAF52EA43057FF4AD
:108BB000EBAE12E74FF0FF3C06E000BF4FF0010CB8
:108BC00002E000BF4FF0010C4DF804CD4FEA410C1C
:108BD0007FEA6C5C4FEA430C18BF7FEA6C5C1BD0E9
:108BE00001B050EA410C0CBF52EA430C91EA030F6A
:108BF00002BF90EA020F0020704710F1000F91EAC7
:108C0000030F58BF994208BF90422CBFD8176FEA94
:108C1000E37040F0010070474FEA410C7FEA6C5C62
:108C200002D150EA013C07D14FEA430C7FEA6C5C69
:108C3000D6D152EA033CD3D05DF8040B704700BF95
:108C40008446104662468C461946634600E000BFE3
:108C500001B5FFF7B7FF002848BF10F1000F01BDB5
:108C60004DF808EDFFF7F4FF0CBF012000205DF880
:108C700008FB00BF4DF808EDFFF7EAFF34BF012005
:108C800000205DF808FB00BF4DF808EDFFF7E0FF9E
:108C900094BF012000205DF808FB00BF4DF808EDEF
:108CA000FFF7CEFF94BF012000205DF808FB00BF56
:108CB0004DF808EDFFF7C4FF34BF012000205DF838
:108CC00008FB00BF4FEA410C7FEA6C5C02D150EA1E
:108CD000013C0AD14FEA430C7FEA6C5C02D152EAB4
:108CE000033C02D14FF0000070474FF00100704785
:108CF0004FEA4102B2F1E04324BFB3F5001CDCF1BE
:108D0000FE5C0DD901F0004C4FEAC0024CEA5070F5
:108D1000B2F1004F40EB830008BF20F00100704724
:108D200011F0804F21D113F13872BCBF01F0004027
:108D3000704741F480114FEA5252C2F11802C2F159
:108D4000200C10FA0CF320FA02F018BF40F00100DA
:108D50004FEAC1234FEAD32303FA0CFC40EA0C008C
:108D600023FA02F34FEA4303CCE77FEA625307D1C9
:108D700050EA01331EBF4FF0FE4040F44000704700
:108D800001F0004040F0FE4040F40000704700BF9A
:108D900080F0004002E000BF81F0004142001FBFB0
:108DA0005FEA410392EA030F7FEA226C7FEA236CB9
:108DB0006AD04FEA1262D2EB1363C1BFD2184140AE
:108DC00048404140B8BF5B42192B88BF704710F044
:108DD000004F40F4000020F07F4018BF404211F0E7
:108DE000004F41F4000121F07F4118BF494292EA4F
:108DF000030F3FD0A2F1010241FA03FC10EB0C007B
:108E0000C3F1200301FA03F100F0004302D5494207
:108E100060EB4000B0F5000F13D3B0F1807F06D3B4
:108E200040084FEA310102F10102FE2A51D2B1F1AC
:108E3000004F40EBC25008BF20F0010040EA0300A1
:108E40007047490040EB000010F4000FA2F101024E
:108E5000EDD1B0FA80FCACF1080CB2EB0C0200FAD8
:108E60000CF0AABF00EBC25052421843BCBFD04026
:108E70001843704792F0000F81F4000106BF80F4A0
:108E800000000132013BB5E74FEA41037FEA226C63
:108E900018BF7FEA236C21D092EA030F04D092F02E
:108EA000000F08BF0846704790EA010F1CBF002062
:108EB000704712F07F4F04D1400028BF40F00040BF
:108EC000704712F100723CBF00F50000704700F0DF
:108ED000004343F0FE4040F4000070477FEA226206
:108EE00016BF08467FEA23630146420206BF5FEAD7
:108EF000412390EA010F40F4800070474FF00003D7
:108F000004E000BF10F0004348BF40425FEA000C9D
:108F100008BF704743F0964301464FF000001CE045
:108F200050EA010208BF70474FF000030AE000BF9B
:108F300050EA010208BF704711F0004302D54042D9
:108F400061EB41015FEA010C02BF8446014600204B
:108F500043F0B64308BFA3F18053A3F50003BCFA66
:108F60008CF2083AA3EBC25310DB01FA02FC634413
:108F700000FA02FCC2F12002BCF1004F20FA02F21A
:108F800043EB020008BF20F00100704702F120020D
:108F900001FA02FCC2F1200250EA4C0021FA02F26E
:108FA00043EB020008BF20EADC7070477BB972B95E
:108FB0000029BEBF00204FF0004106E008BF002896
:108FC0001CBF6FF000414FF0FF3000F0B1B9ADF1C0
:108FD000080C6DE904CE002909DB002B1ADB00F038
:108FE00035F8DDF804E0DDE9022304B070474042C3
:108FF00061EB4101002B1BDB00F028F8DDF804E0F9
:10900000DDE9022304B0404261EB4101524263EBCF
:1090100043037047524263EB430300F017F8DDF857
:1090200004E0DDE9022304B0404261EB41017047F6
:10903000524263EB430300F009F8DDF804E0DDE998
:10904000022304B0524263EB430370472DE9F0471B
:109050008C460E460446089D002B50D18A42174686
:109060006CD9B2FA82FEBEF1000F0BD0CEF1200413
:1090700020FA04F401FA0EF644EA060C02FA0EF79E
:1090800000FA0EF44FEA1749220CBCFBF9F01FFA64
:1090900087F809FB10C642EA064600FB08F3B34214
:1090A00009D9F61900F1FF3280F02281B34240F273
:1090B0001F8102383E44F61AA2B2B6FBF9F309FB4F
:1090C000136642EA064403FB08F8A04509D9E419EF
:1090D00003F1FF3280F00A81A04540F20781023B94
:1090E0003C44C8EB040443EA00400021002D62D058
:1090F00024FA0EF400232C606B60BDE8F0878B42ED
:1091000007D9002D55D0002185E841000846BDE86B
:10911000F087B3FA83F1002940F09080B34202D384
:10912000824200F2F880841A66EB03060120B446FE
:10913000002D40D085E81010BDE8F08712B9012756
:10914000B7FBF2F7B7FA87FEBEF1000F35D1F31B7C
:109150004FEA17481FFA87FC0121B3FBF8F0220CF5
:1091600008FB103642EA06460CFB00F3B34207D96F
:10917000F61900F1FF3202D2B34200F2CE8010465F
:10918000F61AA2B2B6FBF8F308FB136642EA0644ED
:109190000CFB03FCA44507D9E41903F1FF3202D20A
:1091A000A44500F2B5801346CCEB040443EA00402A
:1091B0009CE729462846BDE8F087CEF1200106FA53
:1091C0000EF307FA0EF720FA01F94FEA1748CE40DE
:1091D00049EA0309B6FBF8FA4FEA194408FB1A6694
:1091E0001FFA87FC44EA06430AFB0CF29A4200FA93
:1091F0000EF40AD9DB190AF1FF3180F087809A4218
:1092000040F28480AAF1020A3B449B1A1FFA89F9B2
:10921000B3FBF8F108FB113349EA034301FB0CF6F9
:109220009E4207D9DB1901F1FF326BD29E4269D908
:1092300002393B449B1B41EA0A418EE7C1F1200EF3
:1092400022FA0EF48B40234320FA0EF706FA01F4BB
:109250004FEA134C26FA0EF63C43B6FBFCF9270CFA
:109260000CFB19661FFA83F847EA064609FB08F764
:10927000B74202FA01F200FA01FA08D9F61809F128
:10928000FF3041D2B7423FD9A9F102091E44F61B73
:10929000A0B2B6FBFCF40CFB146640EA064704FBE4
:1092A00008F8B84507D9FF1804F1FF3028D2B845AF
:1092B00026D9023C1F4444EA0940C8EB0707A0FB3B
:1092C00002894F4544464E4614D329D065B3BAEBC4
:1092D000040367EB060707FA0EFECB40CF404EEAC9
:1092E000030385E888000021BDE8F0871346F8E60F
:1092F0001046E0E6B8EB020469EB03060138E5E747
:109300000446D8E7114695E78146C0E78A467CE7E0
:10931000023B3C4448E708460AE702383E442FE750
:10932000C245E7D33E46D1E72946BDE8F08700BFF6
:10933000704700BF10B5054C13462CB10A460146D4
:109340000220AFF3008010BD204610BD00000000D9
:1093500010B5431E0A44914204D011F8014B03F8A2
:10936000014FF8E710BD02440346934202D003F8D0
:10937000011BFAE77047000038B5124B1C68A36B5D
:109380000546D3B91820FCF77DFB43F20E33A063EA
:1093900003804AF6CD33438041F2342383804EF27A
:1093A0006D63C3804DF6EC630381052343810B237A
:1093B000838101220023C0E90423A36B00221D61E5
:1093C0005A6138BD40E30320024B0146186800F0A3
:1093D00003B800BF40E3032070B5064608460C46BC
:1093E00000F00DF8451C29463046FCF773FB064695
:1093F00018B12A462146FFF7ABFF304670BD034641
:1094000013F8012B002AFBD1181A0138704700000D
:1094100021400D005D400D0089400D008D400D0084
:10942000000000000000000000000000B9400D0036
:10943000CD400D00416972205175616C69747920CD
:1094400053656E736F722072656164792E00416995
:1094500072205175616C6974792053656E736F72F7
:10946000204552524F5221005061727469636C65FD
:1094700000416972205175616C697479004D6F6E9D
:1094800069746F7200424D453238302053656E73F7
:109490006F722072656164792E00424D453238301A
:1094A0002053656E736F72204552524F5221004E09
:1094B0006F6E650044616E67657200486967682079
:1094C000506F6C6C7574696F6E004C6F7720506FC5
:1094D0006C6C7574696F6E004672657368204169C3
:1094E00072004C504F3A20256400526174696F3A03
:1094F000202566252500436F6E63656E7472617466
:10950000696F6E3A202566207063732F4C00546596
:109510006D703A2000430048756D69646974793A4A
:10952000200050726573733A200020685061004437
:109530007573743A200074656D700068756D6964A8
:109540006974790070726573737572650061697210
:109550002D7175616C69747900647573742D6C700C
:109560006F00256C7500647573742D726174696F7A
:1095700000647573742D636F6E63656E74726174CD
:10958000696F6E00656E762D76616C73004169724D
:10959000205175616C6974793A2025730054656DAA
:1095A000703A2025640050726573737572653A20B5
:1095B00025640048756D69646974793A20256400F2
:1095C0000200000003000000010000000000000095
:1095D000000000000000000000005F00000000002C
:1095E000000007000700000000147F147F14000033
:1095F00000242A7F2A12000000231308646200005E
:10960000003649552250000000000503000000000C
:10961000001C2241000000000041221C000000004C
:1096200000082A1C2A0800000008083E080800005C
:1096300000A0600000000000000808080808000002
:10964000006060000000000000201008040200001C
:10965000003E5149453E00000000427F40000000AE
:109660000062514949460000002241494936000044
:10967000001814127F1000000027454545390000EE
:10968000003C4A494930000000017109050300000F
:10969000003649494936000000064949291E0000A4
:1096A00000003636000000000000AC6C0000000036
:1096B00000081422410000000014141414140000C7
:1096C00000412214080000000002015109060000B8
:1096D00000324979413E0000007E0909097E000000
:1096E000007F494949360000003E414141220000C7
:1096F000007F4141221C0000007F49494941000090
:10970000007F090909010000003E4141517200003B
:10971000007F0808087F000000417F410000000032
:10972000002040413F010000007F0814224100005A
:10973000007F404040400000007F020C027F00009C
:10974000007F0408107F0000003E4141413E0000C0
:10975000007F090909060000003E4151215E00001A
:10976000007F0919294600000026494949320000B6
:109770000001017F01010000003F4040403F000028
:10978000001F2040201F0000003F4038403F0000E5
:10979000006314081463000000030478040300004D
:1097A0000061514945430000007F41410000000035
:1097B00000020408102000000041417F000000006A
:1097C000000402010204000000808080808000000C
:1097D00000010204000000000020545454780000EE
:1097E000007F48444438000000384444280000000A
:1097F00000384444487F0000003854545418000096
:1098000000087E09020000000018A4A4A47C000047
:10981000007F08040478000000007D0000000000C4
:109820000080847D00000000007F102844000000BC
:1098300000417F4000000000007C04180478000014
:10984000007C08047C00000000384444380000001C
:1098500000FC24241800000000182424FC00000050
:1098600000007C080400000000485454240000005C
:1098700000047F4400000000003C40407C000000E9
:10988000001C2040201C0000003C4030403C0000F8
:109890000044281028440000001CA0A07C00000008
:1098A000004464544C4400000008364100000000AD
:1098B00000007F00000000000041360800000000AA
:1098C0000002010102010000000205050200000083
:1098D00000000000000000004D4A0D006465666154
:1098E000756C7420004D5342004C5342003C535061
:1098F0004953657474696E67732064656661756C3D
:10990000743E003C53504953657474696E6773200C
:109910002573256C75202573204D4F444525643EE5
:109920000000000000000000000000003D530D009A
:1099300059530D0000000000000000006D530D00A1
:1099400081530D0025303478005C75253034580083
:10995000747275650066616C736500252E2A660059
:10996000256600252E2A6C6600256C660000000026
:109970000000000000000000795B0D007F5B0D001F
:10998000D55B0D008D5B0D007B5B0D0000000000C2
:10999000000000008F610D0085610D007B610D00EE
:1099A00071610D0065610D0059610D004D610D0083
:1099B00045610D003B610D0031610D0031650D0009
:1099C0000000000000000000AD610D00F7610D0017
:1099D000CF610D00AF610D00D7610D00DF610D009B
:1099E000E7610D00EF610D000000000000000000C5
:1099F00081620D0071620D0073620D006261756419
:109A00000053657269616C0053657269616C310065
:109A10007479706500706172616D00636D640069D6
:109A20006400686E64007374726D0066696C740023
:109A30006C766C0061646448616E646C657200727F
:109A4000656D6F766548616E646C657200656E75F4
:109A50006D48616E646C657273004A534F4E537467
:109A60007265616D4C6F6748616E646C6572006110
:109A7000707000253031307520005D20002C2000F2
:109A800028293A2000205B00636F6465203D200098
:109A900025690064657461696C73203D20000D0ABE
:109AA000006C6E00666E00636F64650064657461CF
:109AB000696C006E6F6E6500747261636500696E3B
:109AC000666F007761726E006572726F720070610E
:109AD0006E696300616C6C00000000000000000013
